:100000000C9435000C945D000C945D000C945D0024
:100010000C945D000C945D000C945D000C945D00EC
:100020000C945D000C945D000C945D000C945D00DC
:100030000C945D000C945D000C945D000C945D00CC
:100040000C9469040C945D000C94D9040C94B304D2
:100050000C945D000C945D000C945D000C945D00AC
:100060000C945D000C945D00010611241FBECFEFBF
:10007000D8E0DEBFCDBF23E0AAEEB2E001C01D9202
:10008000A439B207E1F712E0A0E0B1E0E2E6F1E165
:1000900002C005900D92AA3EB107D9F710E0C5E362
:1000A000D0E004C02197FE010E94AD06C433D10701
:1000B000C9F70E940B050C94AF080C9400003FB7E1
:1000C000F8948091EF029091F002A091F102B0912A
:1000D000F20226B5A89B05C02F3F19F00196A11D7D
:1000E000B11D3FBFBA2FA92F982F8827820F911DCE
:1000F000A11DB11DBC01CD0142E0660F771F881F15
:10010000991F4A95D1F70895CF92DF92EF92FF920F
:100110000F931F93CF93DF936C017A018B01C0E0A3
:10012000D0E0CE15DF0581F0D8016D918D01D601AB
:10013000ED91FC910190F081E02DC6010995892B8C
:1001400011F02196EECF7E01C701DF91CF911F9173
:100150000F91FF90EF90DF90CF900895089580E089
:1001600090E00895FC01538D448D252F30E0842FBD
:1001700090E0821B930B541710F0CF9608950197CF
:100180000895FC01918D828D981761F0828DDF01B9
:10019000A80FB11D5D968C91928D9F5F9F73928F7A
:1001A00090E008958FEF9FEF0895FC01918D828D6F
:1001B000981731F0828DE80FF11D858D90E008953C
:1001C0008FEF9FEF0895FC01918D228D892F90E094
:1001D000805C9F4F821B91098F739927089583EF4D
:1001E00092E00E94E30021E0892B09F420E0822FB5
:1001F0000895FC01848DDF01A80FB11DA35ABF4FE4
:100200002C91848D90E001968F739927848FA68915
:10021000B7892C93A089B1898C91837080648C9369
:10022000938D848D981306C00288F389E02D808118
:100230008F7D80830895EF92FF920F931F93CF934A
:10024000DF93EC0181E0888F9B8D8C8D981305C026
:10025000E889F989808185FD26C0F62E0B8D10E096
:100260000F5F1F4F0F731127E02E8C8DE8120CC00B
:100270000FB607FCFACFE889F989808185FFF5CFB1
:10028000CE010E94F900F1CF8B8DFE01E80FF11D28
:10029000E35AFF4FF0829FB7F8940B8FEA89FB89EE
:1002A000808180620AC09FB7F894EE89FF896083DD
:1002B000E889F98980818370806480839FBF81E0B1
:1002C00090E0DF91CF911F910F91FF90EF900895F3
:1002D000CF93DF93EC01888D8823C9F0EA89FB89ED
:1002E000808185FD05C0A889B9898C9186FD0FC0E4
:1002F0000FB607FCF5CF808185FFF2CFA889B989B9
:100300008C9185FFEDCFCE010E94F900E7CFDF9100
:10031000CF91089580E090E0892B29F00E94EF00B2
:1003200081110C9400000895009769F0FC01019080
:100330000020E9F73197AF01481B590BBC0183EF4F
:1003400092E00C94840080E090E00895CF93DF93D6
:100350000E949401EC018EE191E00E9494018C0FC7
:100360009D1FDF91CF9108958F929F92AF92BF9280
:100370000F931F93CF93DF93CDB7DEB7A1970FB63F
:10038000F894DEBF0FBECDBF19A2423008F44AE098
:100390008E010F5D1F4F842E912CA12CB12CA50135
:1003A00094010E948B06E62FB901CA010150110980
:1003B000EA3014F4E05D01C0E95CD801EC93232B32
:1003C000242B252B61F7C8010E949401A1960FB63A
:1003D000F894DEBF0FBECDBFDF91CF911F910F917B
:1003E000BF90AF909F908F900895CF92DF92EF9241
:1003F000FF92CF93DF936B017C016DE283EF92E07C
:100400000E941B01EC0166277727CB016C197D093F
:100410008E099F094AE00E94B4018C0F9D1FDF9155
:10042000CF91FF90EF90DF90CF9008950C949401BE
:10043000FF920F931F93CF93DF938B01EA01F22E6C
:10044000FC01448155816081718183EF92E00E94BB
:10045000840081E291E00E941602B801110F880B1E
:10046000990B97FF03C00E94F50103C04AE00E9468
:10047000B40185E291E00E941602BE01DD0F880BF7
:10048000990B97FF03C00E94F50103C04AE00E9448
:10049000B40181E391E00E9416026F2D70E080E0CC
:1004A00090E04AE00E94B4018AE391E0DF91CF91AD
:1004B0001F910F91FF900C94A601CF93DF93BC0185
:1004C000990F880B990B97FF03C00E94F50103C099
:1004D0004AE00E94B401EC018EE191E00E94940197
:1004E0008C0F9D1FDF91CF9108950E949A08EF9283
:1004F000FF920F931F93CF93DF93EC017B018A014F
:1005000088819981009729F02A813B81241735073A
:10051000F8F4B8016F5F7F4F0E94D407009759F03D
:10052000998388831B830A832C813D81232B81F44B
:10053000FC0110820DC088819981009711F00E9402
:100540004B07198218821D821C821B821A8207C0E7
:100550001D830C83B701888199810E94A808CE0170
:10056000DF91CF911F910F91FF90EF900895EF923F
:10057000FF920F931F93CF93DF9300D000D000D052
:10058000CDB7DEB78B017A011A8219821C821B82D9
:100590001E821D82FC01608171816115710531F03F
:1005A00044815581CE0101960E94770221E0A70186
:1005B000B801CE0101960E94180289819A810E9499
:1005C0004B0726960FB6F894DEBF0FBECDBFDF9166
:1005D000CF911F910F91FF90EF900895FC01118230
:1005E000108213821282158214826115710551F0F6
:1005F000FB0101900020E9F73197AF01461B570B33
:100600000C94770208950F931F93CF93DF9300D03C
:1006100000D000D0CDB7DEB70091050110E063E453
:1006200071E0CE0101960E94EE0245E051E0B80172
:10063000CE0101960E94B70289819A810E944B07E0
:100640000091040110E069E471E0CE0101960E947E
:10065000EE0244E051E0B801CE0101960E94B702DB
:1006600089819A810E944B07009102011091030138
:100670006FE471E0CE0101960E94EE0222E042E0BA
:1006800051E0B801CE0101960E94180289819A8139
:100690000E944B07009100011091010164E571E097
:1006A000CE0101960E94EE0222E040E051E0B80146
:1006B000CE0101960E94180289819A810E944B07FF
:1006C00081E991E00E94A60126960FB6F894DEBF5C
:1006D0000FBECDBFDF91CF911F910F9108958F92E3
:1006E0009F92AF92BF92CF92DF92EF92FF920F93C1
:1006F0001F93CF93DF93CDB7DEB72C970FB6F89447
:10070000DEBF0FBECDBF0DE310E083EF92E00E948D
:10071000E300892B99F589E591E00E9416020E9479
:100720005F004B015C0184EFC82EDD24D394E12CE3
:10073000F12C0E945F00DC01CB0188199909AA09FC
:10074000BB09883E9340A105B10598F321E0C21A88
:10075000D108E108F10888EE880E83E0981EA11CFC
:10076000B11CC114D104E104F10419F701501109BD
:1007700061F681E991E00E94A601C5CF81E991E08F
:100780000E94A6018E010F5F1F4F8CE0F8011192AD
:100790008A95E9F768017601E01AF10A83EF92E0A1
:1007A0000E94E3001816190644F483EF92E00E94B9
:1007B000C100F60181936F01EECFF801EE0DFF1D30
:1007C0001082C8010E942E062C960FB6F894DEBF48
:1007D0000FBECDBFDF91CF911F910F91FF90EF9092
:1007E000DF90CF90BF90AF909F908F900895CF9261
:1007F000DF92EF92FF920F931F93CF93DF93C82F57
:100800008BE591E00E94A6010E946F038C01892B69
:1008100009F451C08CE691E00E941602C8010E94C2
:100820005D02C13021F4F801C081D0E017C0C230B0
:1008300021F4F801C081D18111C086E791E00E94C6
:1008400016026C2F70E080E090E04AE00E94B40154
:100850008EE191E00E949401C0E0D0E08AE891E04E
:100860000E9416026E01DD0FEE08FF08F7FE05C0BC
:10087000C701B6010E94F50105C04AE0C701B601F3
:100880000E94B40182E991E00E9416026C2F83EF6E
:1008900092E00E941B0185E991E00E94160287E91F
:1008A00091E00E94160242E0C701B6010E94B40125
:1008B00081E991E002C08DE991E00E94A601C801A2
:1008C000DF91CF911F910F91FF90EF90DF90CF902C
:1008D00008951F920F920FB60F9211242F933F93FA
:1008E0008F939F93AF93BF938091EB029091EC0213
:1008F000A091ED02B091EE023091EA0223E0230FC5
:100900002D3720F40196A11DB11D05C026E8230F47
:100910000296A11DB11D2093EA028093EB029093F1
:10092000EC02A093ED02B093EE028091EF02909161
:10093000F002A091F102B091F2020196A11DB11D49
:100940008093EF029093F002A093F102B093F20231
:10095000BF91AF919F918F913F912F910F900FBEBB
:100960000F901F9018951F920F920FB60F9211249F
:100970002F933F934F935F936F937F938F939F93A7
:10098000AF93BF93EF93FF9383EF92E00E94F90040
:10099000FF91EF91BF91AF919F918F917F916F9157
:1009A0005F914F913F912F910F900FBE0F901F902D
:1009B00018951F920F920FB60F9211242F938F93B9
:1009C0009F93EF93FF93E0910303F09104038081E1
:1009D000E0910903F0910A0382FD12C09081809199
:1009E0000C038F5F8F7320910D03821751F0E091FC
:1009F0000C03F0E0ED50FD4F958F80930C0301C088
:100A00008081FF91EF919F918F912F910F900FBE59
:100A10000F901F901895789484B5826084BD84B53A
:100A2000816084BD85B5826085BD85B5816085BDE9
:100A300080916E00816080936E00109281008091A1
:100A40008100826080938100809181008160809329
:100A50008100809180008160809380008091B1004E
:100A600084608093B1008091B00081608093B00079
:100A700080917A00846080937A0080917A0082600D
:100A800080937A0080917A00816080937A008091CF
:100A90007A00806880937A001092C100E09103038D
:100AA000F091040382E08083E091FF02F091000363
:100AB0001082E0910103F09102038FEC8083109289
:100AC0000B03E0910703F091080386E08083E09137
:100AD0000503F0910603808180618083E091050326
:100AE000F0910603808188608083E0910503F09196
:100AF0000603808180688083E0910503F0910603FE
:100B000080818F7D80830E94030384EB91E00E94AB
:100B1000A60181E991E00E94A60185EF91E00E9483
:100B2000A6018CE092E00E94A6018BE292E00E9476
:100B3000A6018CE492E00E94A6018AE692E00E945F
:100B4000A6018AE892E00E94A60181E991E00E9454
:100B5000A6010E946F03EC018130910519F40E94F7
:100B600003034CC08230910511F481E024C083302E
:100B70009105E9F481E00E94F703EC01892B91F0E3
:100B800084EA92E00E94A6010E946F03182F092FA9
:100B900088EB92E00E94A601812F902F0E945D02B7
:100BA00018832CC08DE991E00E94A60127C08430F3
:100BB000910521F482E00E94F70320C00597B9F463
:100BC00082E00E94F703EC01892B61F384EA92E052
:100BD0000E94A6010E946F038C0188EB92E00E94A4
:100BE000A601C8010E945D021983088307C08CEC2E
:100BF00092E00E941602CE010E945D020E948A01CC
:100C000084CFE3EFF2E01382128288EE93E0A0E05B
:100C1000B0E084839583A683B78380E191E09183DC
:100C2000808385EC90E09587848784EC90E09787BB
:100C3000868780EC90E0918B808B81EC90E0938BA9
:100C4000828B82EC90E0958B848B86EC90E0978B86
:100C5000868B118E128E138E148E0895FC018827B8
:100C60009927E89421912032E9F3293010F02E30B1
:100C7000C8F32B3241F02D3239F4689404C00E943D
:100C80004C06820F911D219120532A30C0F31EF48F
:100C9000909581959F4F08957AE0979F902D879F1B
:100CA000802D910D112408952F923F924F925F92C3
:100CB0006F927F928F929F92AF92BF92CF92DF926C
:100CC000EF92FF920F931F93CF93DF93CDB7DEB7D1
:100CD000CA1BDB0B0FB6F894DEBF0FBECDBF099465
:100CE0002A88398848885F846E847D848C849B84BC
:100CF000AA84B984C884DF80EE80FD800C811B81CA
:100D0000AA81B981CE0FD11D0FB6F894DEBF0FBEF8
:100D1000CDBFED010895A1E21A2EAA1BBB1BFD0158
:100D20000DC0AA1FBB1FEE1FFF1FA217B307E407CA
:100D3000F50720F0A21BB30BE40BF50B661F771F22
:100D4000881F991F1A9469F7609570958095909502
:100D50009B01AC01BD01CF010895EE0FFF1F05906F
:100D6000F491E02D09940F931F93CF93DF9382307A
:100D7000910510F482E090E0E0919203F0919303EA
:100D800020E030E0A0E0B0E0309719F140815181DF
:100D90000281138148175907C8F08417950769F431
:100DA000109731F012960C93129713961C9327C04C
:100DB000009392031093930322C02115310519F07B
:100DC0004217530718F49A01BD01EF01DF01F80142
:100DD000DBCF21153105F9F0281B390B2430310503
:100DE00080F48A819B816115710521F0FB01938359
:100DF000828304C09093930380939203FE01329602
:100E000044C0FE01E20FF31F8193919322503109F8
:100E1000398328833AC02091900330919103232B8A
:100E200041F42091080130910901309391032093FE
:100E3000900320910601309107012115310541F4FD
:100E40002DB73EB740910A0150910B01241B350B81
:100E5000E0919003F0919103E217F307A0F42E1BA9
:100E60003F0B2817390778F0AC014E5F5F4F24170E
:100E7000350748F04E0F5F1F509391034093900346
:100E80008193919302C0E0E0F0E0CF01DF91CF9138
:100E90001F910F910895CF93DF93009709F481C0BC
:100EA000FC01329713821282A0919203B0919303B6
:100EB000109781F420813181820F931F209190033C
:100EC000309191032817390751F5F0939103E0937E
:100ED000900367C0ED0120E030E0CE17DF0740F45B
:100EE0004A815B819E0141155105F1F0EA01F5CF80
:100EF000D383C28340815181840F951FC817D907BE
:100F000059F488819981840F951F0296918380837B
:100F10008A819B81938382832115310529F4F09383
:100F20009303E09392033DC0E901FB83EA83499177
:100F30005991C40FD51FEC17FD0761F48081918191
:100F4000840F951F0296E90199838883828193819A
:100F50009B838A83E0E0F0E012968D919C91139739
:100F6000009719F0FD01DC01F7CF8D919C9111974D
:100F70009D012E5F3F4F820F931F20919003309170
:100F800091032817390769F4309729F410929303D5
:100F90001092920302C013821282B0939103A09325
:100FA0009003DF91CF910895A0E0B0E0EAEDF7E083
:100FB0000C945806EC01009721F4CB010E94B30673
:100FC000B4C0FC01E60FF71F9C0122503109E21763
:100FD000F30708F4A8C0D9010D911C9111970617C9
:100FE0001707B0F00530110508F49BC0C80104973D
:100FF0008617970708F495C002501109061B170BB6
:10100000019311936D937C93CF010E944B0789C08C
:101010005B01A01AB10A4C01800E911EA0919203AF
:10102000B0919303612C712CE12CF12C109709F4F1
:1010300046C08D919C911197A815B905B1F56C0129
:1010400042E0C40ED11CCA14DB0478F14C018A18AA
:101050009B08640142E0C40ED11C1296BC9012970A
:101060001396AC91B5E0CB16D10440F0B282A383C5
:1010700091828082D9016D937C9309C00E5F1F4FCE
:10108000800F911FF90191838083EB2DFA2FE114DA
:10109000F10431F0D7011396FC93EE93129741C0FF
:1010A000F0939303E09392033CC06816790608F42A
:1010B0003C017D0112960D90BC91A02DB7CF80917F
:1010C00090039091910388169906E1F466167706CD
:1010D000C8F48091060190910701009741F48DB703
:1010E0009EB740910A0150910B01841B950BE817A4
:1010F000F907C8F4F0939103E0939003F901718329
:1011000060830FC0CB010E94B3067C01009759F0A9
:10111000A801BE010E949F08CE010E944B07C70193
:1011200004C0CE0102C080E090E0CDB7DEB7EEE0B3
:101130000C94740681E090E0F8940C94AF08FB01E5
:10114000DC0102C001900D9241505040D8F7089543
:10115000FB01DC0101900D920020E1F70895F89465
:02116000FFCFBF
:101162000020001020100000940320000000000066
:101172001B018400B2006801E300C100D5000D0A22
:1011820000203D20000920616464726573733A2077
:1011920000092073697A653A20002D627974652806
:1011A200732900627974654100627974654200694D
:1011B2006E744100696E7442002E0050726F76693F
:1011C200646520616464726573733A004164647299
:1011D2006573733A2000556E6B6E6F776E20646193
:1011E200746120747970653A200056616C75653AB5
:1011F2000900203D202700203D20306200496E6317
:10120200636F72656374206164647265737320280E
:101212003C3029002A2A2A20557365206174206FE8
:10122200776E207269736B212054686973206D6137
:10123200792063617573652064616D6167652074EF
:101242006F20796F75722068617264776172652EA2
:10125200202A2A2A005B315D2053686F77206D6552
:101262006D6F72792076616C756573005B325D20FB
:1012720053686F7720627974652D76616C7565208D
:1012820061742061646472657373005B335D204333
:1012920068616E676520627974652D76616C75652B
:1012A2002061742061646472657373005B345D2035
:1012B20053686F7720696E742D76616C7565206155
:1012C200742061646472657373005B355D204368EA
:1012D200616E676520696E742D76616C756520613B
:1012E20074206164647265737300506C6561736528
:1012F2002070726F766964652073656C65637469CA
:101302006F6E3A0050726F76696465206E65772061
:1013120076616C75653A20005570646174696E6718
:101322002076616C756520746F3A2000556E737576
:1013320070706F72746564206D656E752073656C74
:0A134200656374696F6E3A200000C5
:00000001FF
